{
  "_format": "hh3-artifact-1",
  "contractName": "MyNFT",
  "sourceName": "contracts/MyNFT.sol",
  "abi": [
    {
      "inputs": [
        {
          "internalType": "address",
          "name": "owner",
          "type": "address"
        }
      ],
      "stateMutability": "nonpayable",
      "type": "constructor"
    },
    {
      "inputs": [
        {
          "internalType": "address",
          "name": "sender",
          "type": "address"
        },
        {
          "internalType": "uint256",
          "name": "tokenId",
          "type": "uint256"
        },
        {
          "internalType": "address",
          "name": "owner",
          "type": "address"
        }
      ],
      "name": "ERC721IncorrectOwner",
      "type": "error"
    },
    {
      "inputs": [
        {
          "internalType": "address",
          "name": "operator",
          "type": "address"
        },
        {
          "internalType": "uint256",
          "name": "tokenId",
          "type": "uint256"
        }
      ],
      "name": "ERC721InsufficientApproval",
      "type": "error"
    },
    {
      "inputs": [
        {
          "internalType": "address",
          "name": "approver",
          "type": "address"
        }
      ],
      "name": "ERC721InvalidApprover",
      "type": "error"
    },
    {
      "inputs": [
        {
          "internalType": "address",
          "name": "operator",
          "type": "address"
        }
      ],
      "name": "ERC721InvalidOperator",
      "type": "error"
    },
    {
      "inputs": [
        {
          "internalType": "address",
          "name": "owner",
          "type": "address"
        }
      ],
      "name": "ERC721InvalidOwner",
      "type": "error"
    },
    {
      "inputs": [
        {
          "internalType": "address",
          "name": "receiver",
          "type": "address"
        }
      ],
      "name": "ERC721InvalidReceiver",
      "type": "error"
    },
    {
      "inputs": [
        {
          "internalType": "address",
          "name": "sender",
          "type": "address"
        }
      ],
      "name": "ERC721InvalidSender",
      "type": "error"
    },
    {
      "inputs": [
        {
          "internalType": "uint256",
          "name": "tokenId",
          "type": "uint256"
        }
      ],
      "name": "ERC721NonexistentToken",
      "type": "error"
    },
    {
      "inputs": [
        {
          "internalType": "address",
          "name": "owner",
          "type": "address"
        }
      ],
      "name": "OwnableInvalidOwner",
      "type": "error"
    },
    {
      "inputs": [
        {
          "internalType": "address",
          "name": "account",
          "type": "address"
        }
      ],
      "name": "OwnableUnauthorizedAccount",
      "type": "error"
    },
    {
      "anonymous": false,
      "inputs": [
        {
          "indexed": true,
          "internalType": "address",
          "name": "owner",
          "type": "address"
        },
        {
          "indexed": true,
          "internalType": "address",
          "name": "approved",
          "type": "address"
        },
        {
          "indexed": true,
          "internalType": "uint256",
          "name": "tokenId",
          "type": "uint256"
        }
      ],
      "name": "Approval",
      "type": "event"
    },
    {
      "anonymous": false,
      "inputs": [
        {
          "indexed": true,
          "internalType": "address",
          "name": "owner",
          "type": "address"
        },
        {
          "indexed": true,
          "internalType": "address",
          "name": "operator",
          "type": "address"
        },
        {
          "indexed": false,
          "internalType": "bool",
          "name": "approved",
          "type": "bool"
        }
      ],
      "name": "ApprovalForAll",
      "type": "event"
    },
    {
      "anonymous": false,
      "inputs": [
        {
          "indexed": false,
          "internalType": "uint256",
          "name": "_fromTokenId",
          "type": "uint256"
        },
        {
          "indexed": false,
          "internalType": "uint256",
          "name": "_toTokenId",
          "type": "uint256"
        }
      ],
      "name": "BatchMetadataUpdate",
      "type": "event"
    },
    {
      "anonymous": false,
      "inputs": [
        {
          "indexed": false,
          "internalType": "uint256",
          "name": "_tokenId",
          "type": "uint256"
        }
      ],
      "name": "MetadataUpdate",
      "type": "event"
    },
    {
      "anonymous": false,
      "inputs": [
        {
          "indexed": true,
          "internalType": "address",
          "name": "previousOwner",
          "type": "address"
        },
        {
          "indexed": true,
          "internalType": "address",
          "name": "newOwner",
          "type": "address"
        }
      ],
      "name": "OwnershipTransferred",
      "type": "event"
    },
    {
      "anonymous": false,
      "inputs": [
        {
          "indexed": true,
          "internalType": "address",
          "name": "from",
          "type": "address"
        },
        {
          "indexed": true,
          "internalType": "address",
          "name": "to",
          "type": "address"
        },
        {
          "indexed": true,
          "internalType": "uint256",
          "name": "tokenId",
          "type": "uint256"
        }
      ],
      "name": "Transfer",
      "type": "event"
    },
    {
      "inputs": [
        {
          "internalType": "address",
          "name": "to",
          "type": "address"
        },
        {
          "internalType": "uint256",
          "name": "tokenId",
          "type": "uint256"
        }
      ],
      "name": "approve",
      "outputs": [],
      "stateMutability": "nonpayable",
      "type": "function"
    },
    {
      "inputs": [
        {
          "internalType": "address",
          "name": "owner",
          "type": "address"
        }
      ],
      "name": "balanceOf",
      "outputs": [
        {
          "internalType": "uint256",
          "name": "",
          "type": "uint256"
        }
      ],
      "stateMutability": "view",
      "type": "function"
    },
    {
      "inputs": [
        {
          "internalType": "uint256",
          "name": "tokenId",
          "type": "uint256"
        }
      ],
      "name": "getApproved",
      "outputs": [
        {
          "internalType": "address",
          "name": "",
          "type": "address"
        }
      ],
      "stateMutability": "view",
      "type": "function"
    },
    {
      "inputs": [
        {
          "internalType": "address",
          "name": "owner",
          "type": "address"
        },
        {
          "internalType": "address",
          "name": "operator",
          "type": "address"
        }
      ],
      "name": "isApprovedForAll",
      "outputs": [
        {
          "internalType": "bool",
          "name": "",
          "type": "bool"
        }
      ],
      "stateMutability": "view",
      "type": "function"
    },
    {
      "inputs": [
        {
          "internalType": "address",
          "name": "to",
          "type": "address"
        },
        {
          "internalType": "string",
          "name": "uri",
          "type": "string"
        }
      ],
      "name": "mint",
      "outputs": [
        {
          "internalType": "uint256",
          "name": "",
          "type": "uint256"
        }
      ],
      "stateMutability": "payable",
      "type": "function"
    },
    {
      "inputs": [],
      "name": "mintPrice",
      "outputs": [
        {
          "internalType": "uint256",
          "name": "",
          "type": "uint256"
        }
      ],
      "stateMutability": "view",
      "type": "function"
    },
    {
      "inputs": [],
      "name": "name",
      "outputs": [
        {
          "internalType": "string",
          "name": "",
          "type": "string"
        }
      ],
      "stateMutability": "view",
      "type": "function"
    },
    {
      "inputs": [],
      "name": "owner",
      "outputs": [
        {
          "internalType": "address",
          "name": "",
          "type": "address"
        }
      ],
      "stateMutability": "view",
      "type": "function"
    },
    {
      "inputs": [
        {
          "internalType": "uint256",
          "name": "tokenId",
          "type": "uint256"
        }
      ],
      "name": "ownerOf",
      "outputs": [
        {
          "internalType": "address",
          "name": "",
          "type": "address"
        }
      ],
      "stateMutability": "view",
      "type": "function"
    },
    {
      "inputs": [],
      "name": "renounceOwnership",
      "outputs": [],
      "stateMutability": "nonpayable",
      "type": "function"
    },
    {
      "inputs": [
        {
          "internalType": "address",
          "name": "from",
          "type": "address"
        },
        {
          "internalType": "address",
          "name": "to",
          "type": "address"
        },
        {
          "internalType": "uint256",
          "name": "tokenId",
          "type": "uint256"
        }
      ],
      "name": "safeTransferFrom",
      "outputs": [],
      "stateMutability": "nonpayable",
      "type": "function"
    },
    {
      "inputs": [
        {
          "internalType": "address",
          "name": "from",
          "type": "address"
        },
        {
          "internalType": "address",
          "name": "to",
          "type": "address"
        },
        {
          "internalType": "uint256",
          "name": "tokenId",
          "type": "uint256"
        },
        {
          "internalType": "bytes",
          "name": "data",
          "type": "bytes"
        }
      ],
      "name": "safeTransferFrom",
      "outputs": [],
      "stateMutability": "nonpayable",
      "type": "function"
    },
    {
      "inputs": [
        {
          "internalType": "address",
          "name": "operator",
          "type": "address"
        },
        {
          "internalType": "bool",
          "name": "approved",
          "type": "bool"
        }
      ],
      "name": "setApprovalForAll",
      "outputs": [],
      "stateMutability": "nonpayable",
      "type": "function"
    },
    {
      "inputs": [
        {
          "internalType": "uint256",
          "name": "newPrice",
          "type": "uint256"
        }
      ],
      "name": "setMintPrice",
      "outputs": [],
      "stateMutability": "nonpayable",
      "type": "function"
    },
    {
      "inputs": [
        {
          "internalType": "bytes4",
          "name": "interfaceId",
          "type": "bytes4"
        }
      ],
      "name": "supportsInterface",
      "outputs": [
        {
          "internalType": "bool",
          "name": "",
          "type": "bool"
        }
      ],
      "stateMutability": "view",
      "type": "function"
    },
    {
      "inputs": [],
      "name": "symbol",
      "outputs": [
        {
          "internalType": "string",
          "name": "",
          "type": "string"
        }
      ],
      "stateMutability": "view",
      "type": "function"
    },
    {
      "inputs": [
        {
          "internalType": "uint256",
          "name": "id",
          "type": "uint256"
        }
      ],
      "name": "tokenURI",
      "outputs": [
        {
          "internalType": "string",
          "name": "",
          "type": "string"
        }
      ],
      "stateMutability": "view",
      "type": "function"
    },
    {
      "inputs": [
        {
          "internalType": "address",
          "name": "from",
          "type": "address"
        },
        {
          "internalType": "address",
          "name": "to",
          "type": "address"
        },
        {
          "internalType": "uint256",
          "name": "tokenId",
          "type": "uint256"
        }
      ],
      "name": "transferFrom",
      "outputs": [],
      "stateMutability": "nonpayable",
      "type": "function"
    },
    {
      "inputs": [
        {
          "internalType": "address",
          "name": "newOwner",
          "type": "address"
        }
      ],
      "name": "transferOwnership",
      "outputs": [],
      "stateMutability": "nonpayable",
      "type": "function"
    }
  ],
  "bytecode": "0x6080604052662386f26fc1000060095534801561001a575f5ffd5b50604051612e9b380380612e9b833981810160405281019061003c9190610271565b806040518060400160405280600581526020017f4d794e46540000000000000000000000000000000000000000000000000000008152506040518060400160405280600481526020017f4d4e465400000000000000000000000000000000000000000000000000000000815250815f90816100b791906104d9565b5080600190816100c791906104d9565b5050505f73ffffffffffffffffffffffffffffffffffffffff168173ffffffffffffffffffffffffffffffffffffffff160361013a575f6040517f1e4fbdf700000000000000000000000000000000000000000000000000000000815260040161013191906105b7565b60405180910390fd5b6101498161015060201b60201c565b50506105d0565b5f60075f9054906101000a900473ffffffffffffffffffffffffffffffffffffffff1690508160075f6101000a81548173ffffffffffffffffffffffffffffffffffffffff021916908373ffffffffffffffffffffffffffffffffffffffff1602179055508173ffffffffffffffffffffffffffffffffffffffff168173ffffffffffffffffffffffffffffffffffffffff167f8be0079c531659141344cd1fd0a4f28419497f9722a3daafe3b4186f6b6457e060405160405180910390a35050565b5f5ffd5b5f73ffffffffffffffffffffffffffffffffffffffff82169050919050565b5f61024082610217565b9050919050565b61025081610236565b811461025a575f5ffd5b50565b5f8151905061026b81610247565b92915050565b5f6020828403121561028657610285610213565b5b5f6102938482850161025d565b91505092915050565b5f81519050919050565b7f4e487b71000000000000000000000000000000000000000000000000000000005f52604160045260245ffd5b7f4e487b71000000000000000000000000000000000000000000000000000000005f52602260045260245ffd5b5f600282049050600182168061031757607f821691505b60208210810361032a576103296102d3565b5b50919050565b5f819050815f5260205f209050919050565b5f6020601f8301049050919050565b5f82821b905092915050565b5f6008830261038c7fffffffffffffffffffffffffffffffffffffffffffffffffffffffffffffffff82610351565b6103968683610351565b95508019841693508086168417925050509392505050565b5f819050919050565b5f819050919050565b5f6103da6103d56103d0846103ae565b6103b7565b6103ae565b9050919050565b5f819050919050565b6103f3836103c0565b6104076103ff826103e1565b84845461035d565b825550505050565b5f5f905090565b61041e61040f565b6104298184846103ea565b505050565b5b8181101561044c576104415f82610416565b60018101905061042f565b5050565b601f8211156104915761046281610330565b61046b84610342565b8101602085101561047a578190505b61048e61048685610342565b83018261042e565b50505b505050565b5f82821c905092915050565b5f6104b15f1984600802610496565b1980831691505092915050565b5f6104c983836104a2565b9150826002028217905092915050565b6104e28261029c565b67ffffffffffffffff8111156104fb576104fa6102a6565b5b6105058254610300565b610510828285610450565b5f60209050601f831160018114610541575f841561052f578287015190505b61053985826104be565b8655506105a0565b601f19841661054f86610330565b5f5b8281101561057657848901518255600182019150602085019450602081019050610551565b86831015610593578489015161058f601f8916826104a2565b8355505b6001600288020188555050505b505050505050565b6105b181610236565b82525050565b5f6020820190506105ca5f8301846105a8565b92915050565b6128be806105dd5f395ff3fe608060405260043610610113575f3560e01c8063715018a61161009f578063c87b56dd11610063578063c87b56dd1461038d578063d0def521146103c9578063e985e9c5146103f9578063f2fde38b14610435578063f4a0a5281461045d57610113565b8063715018a6146102d35780638da5cb5b146102e957806395d89b4114610313578063a22cb4651461033d578063b88d4fde1461036557610113565b806323b872dd116100e657806323b872dd146101e157806342842e0e146102095780636352211e146102315780636817c76c1461026d57806370a082311461029757610113565b806301ffc9a71461011757806306fdde0314610153578063081812fc1461017d578063095ea7b3146101b9575b5f5ffd5b348015610122575f5ffd5b5061013d60048036038101906101389190611ca8565b610485565b60405161014a9190611ced565b60405180910390f35b34801561015e575f5ffd5b50610167610496565b6040516101749190611d76565b60405180910390f35b348015610188575f5ffd5b506101a3600480360381019061019e9190611dc9565b610525565b6040516101b09190611e33565b60405180910390f35b3480156101c4575f5ffd5b506101df60048036038101906101da9190611e76565b610540565b005b3480156101ec575f5ffd5b5061020760048036038101906102029190611eb4565b610556565b005b348015610214575f5ffd5b5061022f600480360381019061022a9190611eb4565b610655565b005b34801561023c575f5ffd5b5061025760048036038101906102529190611dc9565b610674565b6040516102649190611e33565b60405180910390f35b348015610278575f5ffd5b50610281610685565b60405161028e9190611f13565b60405180910390f35b3480156102a2575f5ffd5b506102bd60048036038101906102b89190611f2c565b61068b565b6040516102ca9190611f13565b60405180910390f35b3480156102de575f5ffd5b506102e7610741565b005b3480156102f4575f5ffd5b506102fd610754565b60405161030a9190611e33565b60405180910390f35b34801561031e575f5ffd5b5061032761077c565b6040516103349190611d76565b60405180910390f35b348015610348575f5ffd5b50610363600480360381019061035e9190611f81565b61080c565b005b348015610370575f5ffd5b5061038b600480360381019061038691906120eb565b610822565b005b348015610398575f5ffd5b506103b360048036038101906103ae9190611dc9565b610847565b6040516103c09190611d76565b60405180910390f35b6103e360048036038101906103de9190612209565b610859565b6040516103f09190611f13565b60405180910390f35b348015610404575f5ffd5b5061041f600480360381019061041a9190612263565b610988565b60405161042c9190611ced565b60405180910390f35b348015610440575f5ffd5b5061045b60048036038101906104569190611f2c565b610a16565b005b348015610468575f5ffd5b50610483600480360381019061047e9190611dc9565b610a9a565b005b5f61048f82610aac565b9050919050565b60605f80546104a4906122ce565b80601f01602080910402602001604051908101604052809291908181526020018280546104d0906122ce565b801561051b5780601f106104f25761010080835404028352916020019161051b565b820191905f5260205f20905b8154815290600101906020018083116104fe57829003601f168201915b5050505050905090565b5f61052f82610b0c565b5061053982610b92565b9050919050565b610552828261054d610bcb565b610bd2565b5050565b5f73ffffffffffffffffffffffffffffffffffffffff168273ffffffffffffffffffffffffffffffffffffffff16036105c6575f6040517f64a0ae920000000000000000000000000000000000000000000000000000000081526004016105bd9190611e33565b60405180910390fd5b5f6105d983836105d4610bcb565b610be4565b90508373ffffffffffffffffffffffffffffffffffffffff168173ffffffffffffffffffffffffffffffffffffffff161461064f578382826040517f64283d7b000000000000000000000000000000000000000000000000000000008152600401610646939291906122fe565b60405180910390fd5b50505050565b61066f83838360405180602001604052805f815250610822565b505050565b5f61067e82610b0c565b9050919050565b60095481565b5f5f73ffffffffffffffffffffffffffffffffffffffff168273ffffffffffffffffffffffffffffffffffffffff16036106fc575f6040517f89c62b640000000000000000000000000000000000000000000000000000000081526004016106f39190611e33565b60405180910390fd5b60035f8373ffffffffffffffffffffffffffffffffffffffff1673ffffffffffffffffffffffffffffffffffffffff1681526020019081526020015f20549050919050565b610749610def565b6107525f610e76565b565b5f60075f9054906101000a900473ffffffffffffffffffffffffffffffffffffffff16905090565b60606001805461078b906122ce565b80601f01602080910402602001604051908101604052809291908181526020018280546107b7906122ce565b80156108025780601f106107d957610100808354040283529160200191610802565b820191905f5260205f20905b8154815290600101906020018083116107e557829003601f168201915b5050505050905090565b61081e610817610bcb565b8383610f39565b5050565b61082d848484610556565b610841610838610bcb565b858585856110a2565b50505050565b60606108528261124e565b9050919050565b5f60095434101561089f576040517f08c379a00000000000000000000000000000000000000000000000000000000081526004016108969061237d565b60405180910390fd5b5f826040516020016108b191906123d5565b604051602081830303815290604052805190602001209050600a5f8281526020019081526020015f205f9054906101000a900460ff1615610927576040517f08c379a000000000000000000000000000000000000000000000000000000000815260040161091e90612435565b60405180910390fd5b5f60085f81548092919061093a90612480565b9190505590506001600a5f8481526020019081526020015f205f6101000a81548160ff0219169083151502179055506109738582611359565b61097d8185611376565b809250505092915050565b5f60055f8473ffffffffffffffffffffffffffffffffffffffff1673ffffffffffffffffffffffffffffffffffffffff1681526020019081526020015f205f8373ffffffffffffffffffffffffffffffffffffffff1673ffffffffffffffffffffffffffffffffffffffff1681526020019081526020015f205f9054906101000a900460ff16905092915050565b610a1e610def565b5f73ffffffffffffffffffffffffffffffffffffffff168173ffffffffffffffffffffffffffffffffffffffff1603610a8e575f6040517f1e4fbdf7000000000000000000000000000000000000000000000000000000008152600401610a859190611e33565b60405180910390fd5b610a9781610e76565b50565b610aa2610def565b8060098190555050565b5f634906490660e01b7bffffffffffffffffffffffffffffffffffffffffffffffffffffffff1916827bffffffffffffffffffffffffffffffffffffffffffffffffffffffff19161480610b055750610b04826113d0565b5b9050919050565b5f5f610b17836114b1565b90505f73ffffffffffffffffffffffffffffffffffffffff168173ffffffffffffffffffffffffffffffffffffffff1603610b8957826040517f7e273289000000000000000000000000000000000000000000000000000000008152600401610b809190611f13565b60405180910390fd5b80915050919050565b5f60045f8381526020019081526020015f205f9054906101000a900473ffffffffffffffffffffffffffffffffffffffff169050919050565b5f33905090565b610bdf83838360016114ea565b505050565b5f5f610bef846114b1565b90505f73ffffffffffffffffffffffffffffffffffffffff168373ffffffffffffffffffffffffffffffffffffffff1614610c3057610c2f8184866116a9565b5b5f73ffffffffffffffffffffffffffffffffffffffff168173ffffffffffffffffffffffffffffffffffffffff1614610cbb57610c6f5f855f5f6114ea565b600160035f8373ffffffffffffffffffffffffffffffffffffffff1673ffffffffffffffffffffffffffffffffffffffff1681526020019081526020015f205f82825403925050819055505b5f73ffffffffffffffffffffffffffffffffffffffff168573ffffffffffffffffffffffffffffffffffffffff1614610d3a57600160035f8773ffffffffffffffffffffffffffffffffffffffff1673ffffffffffffffffffffffffffffffffffffffff1681526020019081526020015f205f82825401925050819055505b8460025f8681526020019081526020015f205f6101000a81548173ffffffffffffffffffffffffffffffffffffffff021916908373ffffffffffffffffffffffffffffffffffffffff160217905550838573ffffffffffffffffffffffffffffffffffffffff168273ffffffffffffffffffffffffffffffffffffffff167fddf252ad1be2c89b69c2b068fc378daa952ba7f163c4a11628f55a4df523b3ef60405160405180910390a4809150509392505050565b610df7610bcb565b73ffffffffffffffffffffffffffffffffffffffff16610e15610754565b73ffffffffffffffffffffffffffffffffffffffff1614610e7457610e38610bcb565b6040517f118cdaa7000000000000000000000000000000000000000000000000000000008152600401610e6b9190611e33565b60405180910390fd5b565b5f60075f9054906101000a900473ffffffffffffffffffffffffffffffffffffffff1690508160075f6101000a81548173ffffffffffffffffffffffffffffffffffffffff021916908373ffffffffffffffffffffffffffffffffffffffff1602179055508173ffffffffffffffffffffffffffffffffffffffff168173ffffffffffffffffffffffffffffffffffffffff167f8be0079c531659141344cd1fd0a4f28419497f9722a3daafe3b4186f6b6457e060405160405180910390a35050565b5f73ffffffffffffffffffffffffffffffffffffffff168273ffffffffffffffffffffffffffffffffffffffff1603610fa957816040517f5b08ba18000000000000000000000000000000000000000000000000000000008152600401610fa09190611e33565b60405180910390fd5b8060055f8573ffffffffffffffffffffffffffffffffffffffff1673ffffffffffffffffffffffffffffffffffffffff1681526020019081526020015f205f8473ffffffffffffffffffffffffffffffffffffffff1673ffffffffffffffffffffffffffffffffffffffff1681526020019081526020015f205f6101000a81548160ff0219169083151502179055508173ffffffffffffffffffffffffffffffffffffffff168373ffffffffffffffffffffffffffffffffffffffff167f17307eab39ab6107e8899845ad3d59bd9653f200f220920489ca2b5937696c31836040516110959190611ced565b60405180910390a3505050565b5f8373ffffffffffffffffffffffffffffffffffffffff163b1115611247578273ffffffffffffffffffffffffffffffffffffffff1663150b7a02868685856040518563ffffffff1660e01b81526004016111009493929190612519565b6020604051808303815f875af192505050801561113b57506040513d601f19601f820116820180604052508101906111389190612577565b60015b6111bc573d805f8114611169576040519150601f19603f3d011682016040523d82523d5f602084013e61116e565b606091505b505f8151036111b457836040517f64a0ae920000000000000000000000000000000000000000000000000000000081526004016111ab9190611e33565b60405180910390fd5b805160208201fd5b63150b7a0260e01b7bffffffffffffffffffffffffffffffffffffffffffffffffffffffff1916817bffffffffffffffffffffffffffffffffffffffffffffffffffffffff19161461124557836040517f64a0ae9200000000000000000000000000000000000000000000000000000000815260040161123c9190611e33565b60405180910390fd5b505b5050505050565b606061125982610b0c565b505f60065f8481526020019081526020015f208054611277906122ce565b80601f01602080910402602001604051908101604052809291908181526020018280546112a3906122ce565b80156112ee5780601f106112c5576101008083540402835291602001916112ee565b820191905f5260205f20905b8154815290600101906020018083116112d157829003601f168201915b505050505090505f6112fe61176c565b90505f815103611312578192505050611354565b5f8251111561134657808260405160200161132e9291906125a2565b60405160208183030381529060405292505050611354565b61134f84611782565b925050505b919050565b611372828260405180602001604052805f8152506117e8565b5050565b8060065f8481526020019081526020015f2090816113949190612765565b507ff8e1a15aba9398e019f0b49df1a4fde98ee17ae345cb5f6b5e2c27f5033e8ce7826040516113c49190611f13565b60405180910390a15050565b5f7f80ac58cd000000000000000000000000000000000000000000000000000000007bffffffffffffffffffffffffffffffffffffffffffffffffffffffff1916827bffffffffffffffffffffffffffffffffffffffffffffffffffffffff1916148061149a57507f5b5e139f000000000000000000000000000000000000000000000000000000007bffffffffffffffffffffffffffffffffffffffffffffffffffffffff1916827bffffffffffffffffffffffffffffffffffffffffffffffffffffffff1916145b806114aa57506114a98261180b565b5b9050919050565b5f60025f8381526020019081526020015f205f9054906101000a900473ffffffffffffffffffffffffffffffffffffffff169050919050565b808061152257505f73ffffffffffffffffffffffffffffffffffffffff168273ffffffffffffffffffffffffffffffffffffffff1614155b15611654575f61153184610b0c565b90505f73ffffffffffffffffffffffffffffffffffffffff168373ffffffffffffffffffffffffffffffffffffffff161415801561159b57508273ffffffffffffffffffffffffffffffffffffffff168173ffffffffffffffffffffffffffffffffffffffff1614155b80156115ae57506115ac8184610988565b155b156115f057826040517fa9fbf51f0000000000000000000000000000000000000000000000000000000081526004016115e79190611e33565b60405180910390fd5b811561165257838573ffffffffffffffffffffffffffffffffffffffff168273ffffffffffffffffffffffffffffffffffffffff167f8c5be1e5ebec7d5bd14f71427d1e84f3dd0314c0f7b2291e5b200ac8c7c3b92560405160405180910390a45b505b8360045f8581526020019081526020015f205f6101000a81548173ffffffffffffffffffffffffffffffffffffffff021916908373ffffffffffffffffffffffffffffffffffffffff16021790555050505050565b6116b4838383611874565b611767575f73ffffffffffffffffffffffffffffffffffffffff168373ffffffffffffffffffffffffffffffffffffffff160361172857806040517f7e27328900000000000000000000000000000000000000000000000000000000815260040161171f9190611f13565b60405180910390fd5b81816040517f177e802f00000000000000000000000000000000000000000000000000000000815260040161175e929190612834565b60405180910390fd5b505050565b606060405180602001604052805f815250905090565b606061178d82610b0c565b505f61179761176c565b90505f8151116117b55760405180602001604052805f8152506117e0565b806117bf84611934565b6040516020016117d09291906125a2565b6040516020818303038152906040525b915050919050565b6117f283836119fe565b6118066117fd610bcb565b5f8585856110a2565b505050565b5f7f01ffc9a7000000000000000000000000000000000000000000000000000000007bffffffffffffffffffffffffffffffffffffffffffffffffffffffff1916827bffffffffffffffffffffffffffffffffffffffffffffffffffffffff1916149050919050565b5f5f73ffffffffffffffffffffffffffffffffffffffff168373ffffffffffffffffffffffffffffffffffffffff161415801561192b57508273ffffffffffffffffffffffffffffffffffffffff168473ffffffffffffffffffffffffffffffffffffffff1614806118ec57506118eb8484610988565b5b8061192a57508273ffffffffffffffffffffffffffffffffffffffff1661191283610b92565b73ffffffffffffffffffffffffffffffffffffffff16145b5b90509392505050565b60605f600161194284611af1565b0190505f8167ffffffffffffffff8111156119605761195f611fc7565b5b6040519080825280601f01601f1916602001820160405280156119925781602001600182028036833780820191505090505b5090505f82602083010190505b6001156119f3578080600190039150507f3031323334353637383961626364656600000000000000000000000000000000600a86061a8153600a85816119e8576119e761285b565b5b0494505f850361199f575b819350505050919050565b5f73ffffffffffffffffffffffffffffffffffffffff168273ffffffffffffffffffffffffffffffffffffffff1603611a6e575f6040517f64a0ae92000000000000000000000000000000000000000000000000000000008152600401611a659190611e33565b60405180910390fd5b5f611a7a83835f610be4565b90505f73ffffffffffffffffffffffffffffffffffffffff168173ffffffffffffffffffffffffffffffffffffffff1614611aec575f6040517f73c6ac6e000000000000000000000000000000000000000000000000000000008152600401611ae39190611e33565b60405180910390fd5b505050565b5f5f5f90507a184f03e93ff9f4daa797ed6e38ed64bf6a1f0100000000000000008310611b4d577a184f03e93ff9f4daa797ed6e38ed64bf6a1f0100000000000000008381611b4357611b4261285b565b5b0492506040810190505b6d04ee2d6d415b85acef81000000008310611b8a576d04ee2d6d415b85acef81000000008381611b8057611b7f61285b565b5b0492506020810190505b662386f26fc100008310611bb957662386f26fc100008381611baf57611bae61285b565b5b0492506010810190505b6305f5e1008310611be2576305f5e1008381611bd857611bd761285b565b5b0492506008810190505b6127108310611c07576127108381611bfd57611bfc61285b565b5b0492506004810190505b60648310611c2a5760648381611c2057611c1f61285b565b5b0492506002810190505b600a8310611c39576001810190505b80915050919050565b5f604051905090565b5f5ffd5b5f5ffd5b5f7fffffffff0000000000000000000000000000000000000000000000000000000082169050919050565b611c8781611c53565b8114611c91575f5ffd5b50565b5f81359050611ca281611c7e565b92915050565b5f60208284031215611cbd57611cbc611c4b565b5b5f611cca84828501611c94565b91505092915050565b5f8115159050919050565b611ce781611cd3565b82525050565b5f602082019050611d005f830184611cde565b92915050565b5f81519050919050565b5f82825260208201905092915050565b8281835e5f83830152505050565b5f601f19601f8301169050919050565b5f611d4882611d06565b611d528185611d10565b9350611d62818560208601611d20565b611d6b81611d2e565b840191505092915050565b5f6020820190508181035f830152611d8e8184611d3e565b905092915050565b5f819050919050565b611da881611d96565b8114611db2575f5ffd5b50565b5f81359050611dc381611d9f565b92915050565b5f60208284031215611dde57611ddd611c4b565b5b5f611deb84828501611db5565b91505092915050565b5f73ffffffffffffffffffffffffffffffffffffffff82169050919050565b5f611e1d82611df4565b9050919050565b611e2d81611e13565b82525050565b5f602082019050611e465f830184611e24565b92915050565b611e5581611e13565b8114611e5f575f5ffd5b50565b5f81359050611e7081611e4c565b92915050565b5f5f60408385031215611e8c57611e8b611c4b565b5b5f611e9985828601611e62565b9250506020611eaa85828601611db5565b9150509250929050565b5f5f5f60608486031215611ecb57611eca611c4b565b5b5f611ed886828701611e62565b9350506020611ee986828701611e62565b9250506040611efa86828701611db5565b9150509250925092565b611f0d81611d96565b82525050565b5f602082019050611f265f830184611f04565b92915050565b5f60208284031215611f4157611f40611c4b565b5b5f611f4e84828501611e62565b91505092915050565b611f6081611cd3565b8114611f6a575f5ffd5b50565b5f81359050611f7b81611f57565b92915050565b5f5f60408385031215611f9757611f96611c4b565b5b5f611fa485828601611e62565b9250506020611fb585828601611f6d565b9150509250929050565b5f5ffd5b5f5ffd5b7f4e487b71000000000000000000000000000000000000000000000000000000005f52604160045260245ffd5b611ffd82611d2e565b810181811067ffffffffffffffff8211171561201c5761201b611fc7565b5b80604052505050565b5f61202e611c42565b905061203a8282611ff4565b919050565b5f67ffffffffffffffff82111561205957612058611fc7565b5b61206282611d2e565b9050602081019050919050565b828183375f83830152505050565b5f61208f61208a8461203f565b612025565b9050828152602081018484840111156120ab576120aa611fc3565b5b6120b684828561206f565b509392505050565b5f82601f8301126120d2576120d1611fbf565b5b81356120e284826020860161207d565b91505092915050565b5f5f5f5f6080858703121561210357612102611c4b565b5b5f61211087828801611e62565b945050602061212187828801611e62565b935050604061213287828801611db5565b925050606085013567ffffffffffffffff81111561215357612152611c4f565b5b61215f878288016120be565b91505092959194509250565b5f67ffffffffffffffff82111561218557612184611fc7565b5b61218e82611d2e565b9050602081019050919050565b5f6121ad6121a88461216b565b612025565b9050828152602081018484840111156121c9576121c8611fc3565b5b6121d484828561206f565b509392505050565b5f82601f8301126121f0576121ef611fbf565b5b813561220084826020860161219b565b91505092915050565b5f5f6040838503121561221f5761221e611c4b565b5b5f61222c85828601611e62565b925050602083013567ffffffffffffffff81111561224d5761224c611c4f565b5b612259858286016121dc565b9150509250929050565b5f5f6040838503121561227957612278611c4b565b5b5f61228685828601611e62565b925050602061229785828601611e62565b9150509250929050565b7f4e487b71000000000000000000000000000000000000000000000000000000005f52602260045260245ffd5b5f60028204905060018216806122e557607f821691505b6020821081036122f8576122f76122a1565b5b50919050565b5f6060820190506123115f830186611e24565b61231e6020830185611f04565b61232b6040830184611e24565b949350505050565b7f496e73756666696369656e7420455448000000000000000000000000000000005f82015250565b5f612367601083611d10565b915061237282612333565b602082019050919050565b5f6020820190508181035f8301526123948161235b565b9050919050565b5f81905092915050565b5f6123af82611d06565b6123b9818561239b565b93506123c9818560208601611d20565b80840191505092915050565b5f6123e082846123a5565b915081905092915050565b7f4d6574616461746120616c7265616479206d696e7465640000000000000000005f82015250565b5f61241f601783611d10565b915061242a826123eb565b602082019050919050565b5f6020820190508181035f83015261244c81612413565b9050919050565b7f4e487b71000000000000000000000000000000000000000000000000000000005f52601160045260245ffd5b5f61248a82611d96565b91507fffffffffffffffffffffffffffffffffffffffffffffffffffffffffffffffff82036124bc576124bb612453565b5b600182019050919050565b5f81519050919050565b5f82825260208201905092915050565b5f6124eb826124c7565b6124f581856124d1565b9350612505818560208601611d20565b61250e81611d2e565b840191505092915050565b5f60808201905061252c5f830187611e24565b6125396020830186611e24565b6125466040830185611f04565b818103606083015261255881846124e1565b905095945050505050565b5f8151905061257181611c7e565b92915050565b5f6020828403121561258c5761258b611c4b565b5b5f61259984828501612563565b91505092915050565b5f6125ad82856123a5565b91506125b982846123a5565b91508190509392505050565b5f819050815f5260205f209050919050565b5f6020601f8301049050919050565b5f82821b905092915050565b5f600883026126217fffffffffffffffffffffffffffffffffffffffffffffffffffffffffffffffff826125e6565b61262b86836125e6565b95508019841693508086168417925050509392505050565b5f819050919050565b5f61266661266161265c84611d96565b612643565b611d96565b9050919050565b5f819050919050565b61267f8361264c565b61269361268b8261266d565b8484546125f2565b825550505050565b5f5f905090565b6126aa61269b565b6126b5818484612676565b505050565b5b818110156126d8576126cd5f826126a2565b6001810190506126bb565b5050565b601f82111561271d576126ee816125c5565b6126f7846125d7565b81016020851015612706578190505b61271a612712856125d7565b8301826126ba565b50505b505050565b5f82821c905092915050565b5f61273d5f1984600802612722565b1980831691505092915050565b5f612755838361272e565b9150826002028217905092915050565b61276e82611d06565b67ffffffffffffffff81111561278757612786611fc7565b5b61279182546122ce565b61279c8282856126dc565b5f60209050601f8311600181146127cd575f84156127bb578287015190505b6127c5858261274a565b86555061282c565b601f1984166127db866125c5565b5f5b82811015612802578489015182556001820191506020850194506020810190506127dd565b8683101561281f578489015161281b601f89168261272e565b8355505b6001600288020188555050505b505050505050565b5f6040820190506128475f830185611e24565b6128546020830184611f04565b9392505050565b7f4e487b71000000000000000000000000000000000000000000000000000000005f52601260045260245ffdfea264697066735822122042433aa3a20689e878e3ff6d3e795a24f968dd8d2266f2005045cd609046af2164736f6c634300081c0033",
  "linkReferences": {},
  "deployedLinkReferences": {},
  "immutableReferences": {},
  "inputSourceName": "project/contracts/MyNFT.sol",
  "buildInfoId": "solc-0_8_28-f144455ebd384c4601e9e4e15180e94da505d696"
}